:020000040800F2
:10000000C82D002029260008612600086526000862
:10001000692600086D26000871260008000000000F
:10002000000000000000000000000000752600082D
:1000300079260008000000007D26000849220008FB
:100040008126000885260008892600088D260008DC
:100050009126000895260008992600089D2600088C
:10006000A1260008A5260008A9260008AD2600083C
:10007000B1260008B52600085B1E0008FD1D00081B
:10008000B9260008BD260008C126000800000000AF
:10009000000000000000000000000000C52600086D
:1000A000C9260008CD260008D1260008D52600085C
:1000B000D7200008D9260008DD260008E126000820
:1000C000E5260008E9260008ED260008F1260008CC
:1000D000F5260008F9260008FD26000800000000AB
:1000E0000127000805270008092700080000000074
:1000F0000000000000000000000000000D270008C4
:100100000000000011270008152700081927000823
:1001100000000000000000000000000000000000DF
:100120001D27000821270008252700082927000887
:100130002D27000800000000000000000000000063
:10014000000000000000000000000000E5150008AD
:100150003127000835270008392700083D27000807
:1001600041270008452700080000000000000000AB
:10017000000000000000000000000000000000007F
:1001800000000000492700080000000000000000F7
:100190004D270008512700080100DFF8DC0810EBAC
:1001A000013070470100DFF8D40810EB41107047B0
:1001B0000100DFF8CC0810EB41107047DFF8C408ED
:1001C0000168096951F0100102681161016809694B
:1001D000C906FBD47047DFF8AC180A68126932F41C
:1001E000F8620300DBB29B0113F4F8631A4352F088
:1001F00020020B681A610A6812699206FBD47047E4
:10020000DFF884080068000601D4012008E0DFF868
:100210007C0800684068800701D4292000E009209C
:10022000704770B504000D00200619D514F07F0446
:100230002000C0B2FFF7B6FF0668300427D52800BB
:10024000C0B2002802D056F4001603E036F40016BF
:1002500056F0A0562000C0B2FFF7A4FF066016E0DB
:100260002000C0B2FFF7A4FF066830040FD52800B5
:10027000C0B2002802D056F4001603E036F400168F
:1002800056F0A0562000C0B2FFF792FF066070BD86
:1002900010B5040020060AD514F07F042000C0B277
:1002A000FFF780FF0068400D10F0010007E020001C
:1002B000C0B2FFF77DFF0068400D10F0010010BDD7
:1002C00010B40100C9B200294BD0DFF8BC170A688E
:1002D00052F080020A60DFF8AC2711680969002932
:1002E000F9D51168C96831F4745141F0804151F475
:1002F000C0511368D9605FF400111368996300213D
:10030000DFF88C371B681960DFF880371968496897
:1003100051F002011C68616019680C68DFF87417FD
:100320000C4054F0030419680C6094211468616255
:10033000DFF864171468A16201211C68216108219B
:100340001B685961DFF85417136899615FF0FF313A
:10035000136859611168896851F001011268916050
:1003600012E0DFF824170A6812060DD5DFF83027EF
:10037000136853F080031360136833F08003136035
:100380000A6832F080020A6010BC70470100080061
:10039000C0B2002810D0DFF8EC060268926B52F46D
:1003A000803200688263DFF8E4060268526832F047
:1003B0000202006842600FE0DFF8D006026852686F
:1003C00052F0020200684260DFF8B8060268926BE1
:1003D00032F480320068826300207047DFF8AC1688
:1003E0000A68126832F4FE620300DBB252EA0312BA
:1003F00009680A60704770B40200DFF88806036875
:100400009B6A13EB13439BB20024032C10DA05689C
:1004100005EB8405D5F80451AEB2B6F5007F05D2E0
:1004200015EB1545ADB2AB4200D22B00641CECE7D6
:1004300089B2C91C89100C00A4B2102C01DA102456
:10044000210013FA81F440F24115AC4201D300209F
:100450000BE00C00A4B253EA044300681400E4B2B9
:1004600000EB8400C0F80031012070BC70472DE91A
:10047000F04104000D0016002000C0B200283CD15D
:10048000300080B2092803DA08275FF0030812E081
:10049000300080B2112803DA10275FF002080AE06A
:1004A000300080B2212803DA20275FF0010802E043
:1004B00040275FF00008DFF8D4050168C96951F0F2
:1004C00001110068C1612000C0B2FFF76BFE58F057
:1004D000006101602000C0B2FFF76AFE3A0092B2EC
:1004E000DFF8C0150A4302612000C0B2FFF760FECA
:1004F00058F00441016001207DE0200654D514F03D
:100500007F042000C0B2FFF74DFE0700680709D541
:10051000710089B22000C0B2FFF76DFF00280BD137
:10052000002068E0310089B22000C0B2FFF763FF0D
:10053000002801D100205EE0DFF850050168C9699C
:100540000122A24011430068C1612800C0B2012805
:1005500006D0022810D0052802D006280CD017E0BB
:100560002000C0B2310089B251EA805141F080517F
:1005700051F4902139603DE02000C0B2310089B2D1
:1005800051EA805141F0C05151F40821396031E005
:100590002000C0B2310089B251EA805141F0C0510F
:1005A00051F44821396025E02000C0B2FFF700FE79
:1005B0002900C9B2012906D002290CD0052902D090
:1005C000062908D00FE0310089B241F0044151F40E
:1005D000902101600EE0310089B241F0144151F4E4
:1005E0000821016006E0310089B241F0144151F464
:1005F000482101600120BDE8F08170B5060016F0C9
:100600007F063000C0B2FFF7CDFD04003000C0B25D
:10061000FFF7CEFD0500DFF874040168C9695FF0DB
:100620000112B24091430068C161206830F400407B
:1006300020603000C0B2FFF7CEFD2068002806D54C
:100640003000C0B2002802D05FF080402060FF215F
:10065000A1603000C0B200280FD03200D2B24FF4F7
:100660000070424312F10222DFF8180400683300E0
:10067000DBB200EB8300C0F80021286830F40040B2
:1006800028602868002806D53000C0B2002802D0B3
:100690005FF080402860A96070BDF8B504000D00CF
:1006A00016000020FFF778FD0100DFF8D80302688C
:1006B0005269D20602D45FF0FF3028E014F07F04C4
:1006C0000268D26912F00F022300DBB29A4202D014
:1006D0005FF0FF301BE00068006AC0F30A100022E0
:1006E00082420CD212F0030F01D10B681F003300BD
:1006F0009BB29A4201DAAF543F0A521CF0E7320033
:1007000092B2904201D2060000E0B6B23000F2BDD3
:10071000F8B507000C00150017F07F073800C0B2CD
:10072000FFF73AFD06003800C0B2FFF73BFD0100BD
:100730002A0092B2D21C92108869904202D25FF0D5
:10074000FF303BE03800C0B2002805D00868002820
:1007500002D55FF0FF3031E000200861280080B250
:1007600010F500200861086830F4001050F00440D3
:10077000086000230020AC461FFA8CFC60451BDAA1
:1007800014F800C05FEAC00E1EF0180E1CFA0EFC32
:100790005CEA030310F0030CBCF1030F06D010F168
:1007A000010CAE461FFA8EFEF44503D133605FF0B4
:1007B000000C6346401CDEE7ADB22800F2BDB34832
:1007C00000688068000A8004800C70472DE9F047BB
:1007D00004000D000027DFF8AC82D8F8000046695D
:1007E000F00414D54FF48050D8F8001048615FF041
:1007F00000084046C0B2042806DA4046C0B2FFF7FF
:10080000FCFE18F10108F4E7FFF7D8FCE3E7B004B9
:1008100007D54FF40050D8F8001048615FF0000988
:10082000E4E0700313D53800FFF7BCFC042F80F020
:10083000E3808168C90708D5816851F001018160B2
:100840005FF0040957F08007D0E07F1CEBE7F0066B
:1008500034D5D8F80000C069060016F00F00070074
:100860003000400C10F00F00022806D0032815D0ED
:10087000042813D0062803D01CE05FF00509B5E07A
:100880003800FFF78FFC00698749084203D0380021
:10089000C0B2FFF7A0FC5FF00609A7E03800FFF741
:1008A00087FC81463800FFF783FC006850F0044065
:1008B000C9F80000D8F80000006A8CE7300507D5B9
:1008C0005FF002094FF40060D8F8001048618DE035
:1008D000002E07D55FF00040D8F8001048615FF0A7
:1008E000030983E0300319D53800FFF761FC042FBA
:1008F00013D28168C90702D5012181600DE08168AA
:10090000090702D50821816007E08168C90602D580
:100910001021816001E07F1CE6E75CE7F00217D55B
:100920003800FFF73FFC042F0CD201685F4A0A40F1
:100930005F4B9A4204D1026852F08042026001E0AB
:100940007F1CEDE75FF48010D8F80010486153E099
:10095000B00205D55FF40010D8F8001048614BE0F4
:10096000300442D53800FFF71DFC81463800FFF700
:100970001FFC8246042F05D34FF40040D8F8001026
:10098000486139E0DAF8000010F44020B0F5802F1B
:1009900011D1FFF714FFC00706D5DAF8000050F0B8
:1009A0008050CAF800001EE0DAF8000050F0005055
:1009B000CAF8000017E0D9F8000010F44020B0F5A4
:1009C000802F10D1FFF7FBFEC00706D5D9F8000035
:1009D00050F08050C9F8000005E0D9F8000050F050
:1009E0000050C9F800007F1CBCE705E03A00D2B215
:1009F0004946C9B22000A847BDE8F0870023042B70
:100A000007DA01F0FF0250402A4A5043090A5B1CF2
:100A1000F5E770472DE9F84304002500AE1C264F8A
:100A2000264801683800FFF7E9FF8046244801683E
:100A30004046FFF7E3FF8146224801684846FFF73A
:100A4000DDFF01001C2000280FD40A00C24012F074
:100A50000F0213009BB20A2B01DA302300E0372388
:100A60009A183280B61C001FEDE703206870122030
:100A700028701220BDE8F2830010005000090050D9
:100A8000000B005054260008343802405826000855
:100A90005C260008FCFFFFFC9400100010B83C80AE
:100AA00014380240000008200000F81F00000C80ED
:100AB0000000048093010001C59D1C81107AFF1F76
:100AC000147AFF1F187AFF1F30B4029C016080F86F
:100AD000602083654365B4F10805A0F85E5030BC22
:100AE000704741607047C160704701617047F8B559
:100AF00004000D0016001F003A0092B23100C9B286
:100B00002800C0B223681B699847F2BD38B50400BD
:100B10000D002800C0B221684969884731BD0B002B
:100B2000DBB213F0070300EB83035A637047F8B599
:100B300004000D0016001F003A0092B23100280098
:100B4000C0B22368DB699847F2BDF8B504000D0018
:100B500016001F003A0092B231002800C0B223688C
:100B60009B699847F2BD38B504000D002800C0B25B
:100B700021684968884731BD38B504000D00280058
:100B8000C0B221688968884732BD10B4DFF89C2460
:100B90001060DFF89C34D9681C69A14235D2916994
:100BA000491C91611C69D968641A0E2C07D311681D
:100BB0009468B1EB44011160916A491C91621C690F
:100BC000D968641A0C2C06D314689168641A1460EE
:100BD000516A491C51621C69D968641A052C06D2F5
:100BE000146891680C191460116A491C11621C691F
:100BF000D968641A032C10D21168946811EB44016F
:100C00001160D169491CD16107E01169491C11616A
:100C10001168946811EB8401116011684900117327
:100C20000C00240A54730C00240C94730C00240E42
:100C3000D47301221A7110BC704738B5DFF8EC5339
:100C4000DFF8F043E068804751EC100B0022DFF83A
:100C5000E83300F019FA0022DFF8E03300F054FB2B
:100C600000F03EFC68606868C00AA8600020DFF8F9
:100C7000C01308711F2021698847DFF8C403616928
:100C8000884731BD80B5DFF8AC038069804700201C
:100C9000DFF89C13087101BDF0B403005C88A4B2B6
:100CA000240A5D8800262000C0B2012804D018D391
:100CB000032809D003D314E0DFF8887313E0DFF8CA
:100CC0008873822006000EE02800C0B2032806D2F6
:100CD000DFF878032F00FFB250F8277003E0002000
:100CE0000AE0002008E0300080B2002801D1387806
:100CF00006000F6016800120F0BC704770B402003F
:100D00004B884C88A4B2240A2000C0B201283BD1F1
:100D10004878012825D0812836D11800C0B2FF2894
:100D20000AD1DFF82C63C2480578357045787570B4
:100D30008078B070032504E0C548BD4D2D7805705E
:100D40000125C34890652800C0B2CE8880B2B04269
:100D500002D22800C0B200E0C888A2F85C000120DE
:100D600013E01800C0B2FF2807D1B1480D7A057012
:100D70004D7A45708D7A857004E0087AAC4D1E007E
:100D8000F6B2A855012000E0002070BC70472DE9A4
:100D9000F04104000D001600287810F063002128AF
:100DA00049D068780A2809D1A888012806D1A9481D
:100DB000A0650120A4F85C0001204FE068780B28B2
:100DC00037D1A44F68883870DFF88C82A88888F8FB
:100DD000000098F8000001281AD13878012817D1AE
:100DE0009349C878002813D10020C87100200872E8
:100DF0000020C8600020086101208871012048712E
:100E0000FFF71BFF0023002282212000FFF78FFE47
:100E100098F8000001280AD13878002807D1844FBB
:100E2000F878002803D0FFF72DFF0020F87001208C
:100E300014E0002012E0B5F80480AF88BFB23F0A8A
:100E40004046C0B2002808D13800C0B2022804D100
:100E500029002000FFF752FF00E00020BDE8F081EC
:100E60002DE9F84304000D0016002800C0B2042844
:100E70003AD005284CD16E4F787900280CD101204A
:100E8000F8703869401C3861387A401C3872387AFA
:100E9000102801D100203872002078715FF0C4085A
:100EA000DFF8B891C423387A08FB00F009EB0002A0
:100EB00001212000FFF749FE69493A7A21F8120022
:100EC000B87900280FD0387A08280CDB0020B871D8
:100ED000F87931F81010F87908FB00F809EB0800F0
:100EE000544A9268904713E0514F3879002808D04F
:100EF00004235C4A82212000FFF719FE002038718C
:100F000005E00023002282212000FFF710FEFFE70A
:100F1000BDE8F18380B5464AD078002820D0D0685B
:100F2000116988420BD2D068401CD060D079401C37
:100F3000D071D079102806D10020D07103E03B4851
:100F40004169491C41614648D17930F81110434B41
:100F5000D279C420424303EB0200364A926890479C
:100F600001BD70B504000D002800C0B2002802D0F9
:100F7000012814D02CE001212000FFF7C7FD8221B9
:100F80002000FFF7C3FD002201212000FFF7C7FD6D
:100F9000002282212000FFF7C2FD012019E0C423B6
:100FA000012201212000FFF7A2FD0423012282215A
:100FB0002000FFF79CFD2C4E320001212000FFF79E
:100FC000AEFD320082212000FFF7A9FD012000E0E4
:100FD000002070BD1CB5174C20688047234861680D
:100FE0008847234C200000F0D9FA80200090214B44
:100FF000402221492000FFF767FD20492000FFF72C
:1010000070FD1F492000FFF76EFD1E492000FFF70D
:101010006CFD13BD10B5164C01212000FFF7A3FD98
:1010200001212000FFF7A8FDFEE70000280D0020A9
:10103000740D00208C25000800408F4000004040C7
:101040008B0B0008042600084024000838260008FE
:10105000880D0020C50D0020C40D002004000020D4
:10106000540D0020340D0020610E0008150F0008FB
:10107000C40C0020440C0020C42400088F0D00087C
:10108000630F0008990C0008F0B540F2FF7581EA83
:10109000030C0CF0004C15EA11541DBF15EA135750
:1010A000AC42AF42E5E0BC41C1F31301C3F313030B
:1010B000801A994143F4801304D2641E40004941D0
:1010C00080185941C90241EA5051B1FBF3F603FBC4
:1010D0001611A2FB0675D7EBC020A94102D2761EDD
:1010E00080185941C90241EA5051B1FBF3FE03FB9C
:1010F0001E11A2FB0E75D7EBC020A94103D2AEF1A1
:10110000010E80185941890241EA9051760546EA5C
:101110008E2EB1FBF3F603FB1611A2FB0675D7EB7F
:101120008020A94102D2761E80185941C90241EAA5
:1011300050514EEA060EB1FBF3F603FB1611A2FB6B
:101140000675D7EBC020A94102D2761E80185941FE
:10115000C90241EA5051B1FBF3F703FB1711A2FB9F
:101160000735D3EBC020A94167F100070CBF00424F
:1011700047F0010766F3D5274FEA1E31B80814F58A
:10118000806412DDBD0775F1004250EB0E5051EB4B
:10119000045111F5801F5CBF41EA0C01F0BD4CF019
:1011A0007F6141F0E0410020F0BDBD076D0840EADD
:1011B0000E5041F48011D4F10104B4F120060ADA92
:1011C000C4F120060200E04001FA06F3E1401843B2
:1011D000B24015430EE0342C13DCC6F1200445EA7E
:1011E00040056D0820FA06F2154321FA06F0A140E9
:1011F0000D43002175F1004250F1000051EB0C014C
:10120000F0BD00205FEA0C01F0BDCFB992185B4140
:10121000B3FA83F704BFB2FA82F6BF190B3FB7F1F6
:1012200020062FBF02FA06F3BB40C7F1200622FAC0
:1012300006F638BF3343BA401CB1E419641E33E7E5
:101240007F4231F00041B1FA81F404BFB0FA80F678
:10125000A4190B3CB4F120062FBF00FA06F1A140FF
:10126000C4F1200620FA06F638BF3143A0403C1BEB
:101270001AE7AC421ABF05EA1357AF4212E050EA30
:1012800041061CBF52EA4306BFE750EA4107304619
:1012900061461CBF41EA0551F0BD52EA430C08BF4C
:1012A000C143F0BD00204FF4001616EB410F98BF6C
:1012B00016EB430F08BF16EB410F24BFC14305E0F7
:1012C00016EB430F0CBF61464CEA0551F0BD30B43C
:1012D000002513E050F8042BD30744BFA9F1010304
:1012E0009A18091F042942F8045BFAD213468C07A6
:1012F00044BF15809B1CC90748BF1D7050F8041BD4
:101300000029E7D130BC7047B0B581EA030C0CF07E
:10131000004C40F2FF7515EA11541DBF15EA135732
:10132000AC42AF4239E0E41923EA455343F4801359
:10133000C90241F0004141EA505EC7021100A7FB1B
:10134000020200284FF00000EEFB01204FF00001E8
:10135000E3FB072118BF42F0010240180021494178
:10136000E3FB0E01A4F580640F0302D2520040415A
:10137000494154F101046CDD470872F1004250F11B
:10138000000051EB0451A1F580115CBF41EA0C0152
:10139000B0BD4CEA05510020B0BD05EA1357AC4280
:1013A00014BFAF4241E050EA410E1CBF52EA430E67
:1013B00002E061460020B0BD24423C441BD15FEAFC
:1013C000070EF6D0090302BF01460020AEF1140E4D
:1013D000B1FA81F7AEEB070401FA07FE0C37C7F14B
:1013E000200100FA07F7C8404EEA000E23EA4553F1
:1013F00043F48013A2E733F00043B3FA83F704BF4A
:10140000B2FA82FE77440B3FE41BB7F1200E2FBFE8
:1014100002FA0EF3BB40C7F1200E22FA0EFE38BFCF
:1014200043EA0E03BA40641C82E750EA410E14BF3F
:1014300052EA430E6FF000014FF4001717EB430F11
:101440008ABF194617EB410FB5E74CEA055100205A
:10145000B0BDD4F10104B4F120070FDAC4F12007C4
:10146000520828BF42F0010210FA07F501FA07F707
:10147000E1BF2A43E0403843E1400FE0352C98DCDF
:10148000C7F1200452EA400220FA07F218BF42F0E6
:10149000010231FA07F0A1400A43002172F1004233
:1014A00050F1000051EB0C01B0BD340348006F0057
:1014B0006D0065006D006300750020006600690026
:1014C00072006D0077006100720065002000650009
:1014D000780061006D0070006C0065007300000012
:1014E000400D491840EA81200CD2490DA1F58061D8
:1014F000491C40F0004005DBD1F11F0154BFC8403A
:10150000C01770470020704739480068C0F30220B8
:101510007047010049B2002909D4012210F01F01CF
:101520008A40344903005BB25B0941F823207047CD
:1015300010B4020052B2002A05D40A012E4B040056
:1015400064B21A5508E00A012C4B040064B214F08E
:101550000F04234403F8042C10BC704770B403003C
:1015600013F00704D4F10700052801D3042001E09B
:10157000D4F10700251D072D01D2002500E0E51E4E
:10158000012616FA00F0401E0140A94016FA05F5A2
:101590006D1E2A401143080070BC704738B5040026
:1015A0001748016851F001010160164D4FF4D572E2
:1015B0000B21280000F02AF84FF4D5720C212800E6
:1015C00000F024F8FFF7A0FF00220E21FFF7C6FF6E
:1015D00001004320FFF7ACFF4320FFF79AFF0A48C2
:1015E000046031BD80B50848006800F0F0FA01BD24
:1015F0000CED00E000E100E000E400E018ED00E0A8
:101600003038024000000240B40D0020F0B4C9B2EE
:101610004C000B00DBB2DB1000EB83050B00DBB2F0
:10162000DB1000EB83031E6A0F2711F00703DBB208
:101630009B009F40BE431700BFB217F00F0711F089
:101640000703DBB29B009F403E432E6203250668E2
:1016500015FA04F39E4313009BB2C3F30113A34096
:101660001E430660866815FA04F39E4313009BB27E
:10167000C3F3C113A3401E438660436801268E4016
:10168000B3431600B6B2C6F380168E4033434360B0
:10169000C368A54033EA050513009BB2C3F3412399
:1016A000A3401D43C560F0BC704730B40EE0026833
:1016B000436802440830DC0744BFA9F10104E31881
:1016C00052F8045B43F8045B091FF9D150F8041B7E
:1016D0000029ECD130BC704710B5040020680068C8
:1016E000804710BD10B50400022084F8620000207D
:1016F00084F86300002084F8610094F8602092B2BE
:101700000021002023681B6998470FF21140606395
:1017100000202168C968884710BD38B504000D0055
:101720006888C0B22168C96888476888002801D0E5
:10173000032000E0022084F8620031BD10B50400EF
:10174000A068002805D0616D2000A26890470020A5
:10175000A06010BD38B504000D00E068002813D06B
:101760002900C9B22000E268904701280CD184F812
:1017700061502800C0B2002801D0042000E00320FE
:1017800084F86200012000E0002032BD38B504007A
:101790000D00687800282ED001280CD0032846D0F0
:1017A00005282ED006280CD007283FD0082803D0C3
:1017B000092835D03CE03BE094F861002872012014
:1017C00037E0688840F2FE31884208D115F1080000
:1017D0002168096B8847A4F85C00012029E0206992
:1017E000002807D014F15C0214F158012800236985
:1017F00098471EE01CE0002028720020687201203B
:1018000017E02000FFF768FFC00704D5290020007B
:10181000FFF783FF02E0DFF8C803A060012008E0C3
:101820006988C9B22000FFF795FF02E000E0FFE7FA
:10183000002032BD02004878002805D1002008723F
:1018400000204872012000E00020704738B50400F5
:101850000D006878002813D0012809D003281ED174
:101860000121A888C0B22268126A9047012017E0BF
:101870000021A888C0B22268126A904701200FE0B8
:10188000A888C0B22168496A8847002801D0012091
:1018900000E00020287200206872012000E0002093
:1018A00032BD38B504000D00606800280BD014F17B
:1018B000080229002000636898470100C9B2002986
:1018C00001D0C0B219E0287810F06300C0B200283F
:1018D00003D002280BD005D30EE029002000FFF72B
:1018E00055FF0AE029002000FFF7A4FF05E02900CA
:1018F0002000FFF7ABFF00E0002032BD38B5040048
:101900000D00012115F07F002268126A9047012125
:1019100055F08000C0B22268126A9047002084F817
:10192000630031BD70B504000D0094F86300022817
:1019300006D03DD3042830D002D3052831D037E07B
:10194000B4F85C0094F8601089B2884202D2B4F80E
:101950005C6001E094F860603000020092B2A16D1A
:101960002800C0B22368DB699847A06D3044A065A9
:10197000B4F85C00801BA4F85C00B4F85C0000289C
:1019800016D194F86300022803D094F860008642D0
:1019900002D0042084F863000AE0062084F8630083
:1019A00006E0002084F863002000FFF7C7FEFFE791
:1019B00070BDF8B504000D00676D94F86300002851
:1019C00004D001282ED0062853D060E0B4F85E2061
:1019D00039002800C0B223689B699847082805D0C1
:1019E0002900C9B22000FFF789FF95E017F1080030
:1019F000A065F888A4F85C003878000602D4F8885E
:101A0000002800D149E0B4F85E00F988884205D288
:101A10002900C9B22000FFF771FF7DE0012084F8A2
:101A2000630079E0B4F85C20A16D2800C0B223689F
:101A30009B6998470600B4F85C00310089B288427F
:101A400005D22900C9B22000FFF758FF64E0B4F8BE
:101A50005C00310089B288420AD0B4F85C00801B77
:101A6000A4F85C00A06D310089B20844A06553E081
:101A700013E0002200212800C0B223689B69984728
:101A8000002084F863002000FFF758FE44E029009E
:101A9000C9B22000FFF732FF3EE017F10800A06551
:101AA000B4F85E00A4F85C0039002000FFF7F9FEEE
:101AB000012802D0022825D028E03878000615D564
:101AC000B4F85C00F988884206D3F888A4F85C0072
:101AD000022084F8630002E0032084F8630055F0DC
:101AE0008001C9B22000FFF71DFF15E00022002190
:101AF00055F08000C0B22368DB699847052084F860
:101B0000630009E0052084F8630005E02900C9B2FC
:101B10002000FFF7F3FEFFE7F1BD000070B5040001
:101B20000D0016002800C0B204280FD014D30628D8
:101B300001D005D310E0002084F863000020A060ED
:101B40003100C9B22000FFF734FF05E03100C9B20F
:101B50002000FFF7E7FEFFE770BD70B504000D0041
:101B600016002800C0B2002803D0001F022804D9A4
:101B70001AE02000FFF7B6FD16E03000C0B210F00A
:101B8000070004EB8000406B00280CD03200D2B27A
:101B90002900C9B220003300DBB213F0070304EBC5
:101BA00083035B6B9847FFE72800C0B204EB80001B
:101BB000406900280AD03200D2B22900C9B2200000
:101BC0002B00DBB204EB83035B69984770BD10B553
:101BD0000400044920002268926A904710BD00006A
:101BE0001B1700085B1B0008DFF8D0020068C0F379
:101BF00002207047010049B200290AD4012210F0E6
:101C00001F018A40DFF8B81203005BB25B0941F89C
:101C10002320704710B4020052B2002A06D40A01F1
:101C2000DFF8A032040064B21A5509E00A01DFF8B7
:101C30009832040064B214F00F04234403F8042C17
:101C400010BC704770B4030013F00704D4F1070010
:101C5000052801D3042001E0D4F10700251D072D3C
:101C600001D2002500E0E51E012616FA00F0401E14
:101C70000140A94016FA05F56D1E2A4011430800DF
:101C800070BC704710B5DFF84402DFF844120860FA
:101C9000DFF84002016851F080610160DFF838022E
:101CA000016851F002010160016851F00101016019
:101CB000DFF82802016851F480410160DFF820421A
:101CC000A5220A212000FFF7A1FC25220C212000DB
:101CD000FFF79CFCA5220F212000FFF797FC40F2A4
:101CE000A5120321DFF8FC01FFF790FC10BD0000F6
:101CF00010B52DED028B04009FED3E8B4FF401706B
:101D0000DFF8E411086051EC180B0022DFF8DC3139
:101D1000FFF7BAF90022DFF8D831FFF7F5FADFF85C
:101D2000D421C2E900014FF440612000C0B2002874
:101D300002D051F4007101E051F44071DFF8B801B4
:101D40000160BDEC028B10BDDFF8A80190ED000B27
:101D5000704780B5DFF88001016851F4001101601F
:101D6000DFF8980101684908490001600168C90766
:101D7000FCD4DFF88C1101600720DFF888110860BF
:101D8000FFF732FF00220021FFF75CFF01000F2068
:101D9000FFF740FF0F20FFF72DFF01BD10B45A4A97
:101DA000136853F002031360544A13685B085B0026
:101DB00013601368DB07FCD43D23544C2360544B61
:101DC000544C2360544B18600B005B08534C236049
:101DD000136853F01C0313604A4B1C6854F08004D2
:101DE0001C60136853F0010313601368DB07FCD514
:101DF00010BC704755555555CA71974110B5494C9F
:101E00002068800606D54148016851F02001016034
:101E100000F09EF82068C00606D53C48016851F0E5
:101E20001001016000F082F82068000704D53748EF
:101E3000016851F0080101602068400704D533486B
:101E4000016851F0040101602068C00704D52F48E3
:101E5000016851F00101016010BD10B5324C2068DD
:101E6000000106D52E48016851F00061016000F0C4
:101E70008DF82068400106D52948016851F080613D
:101E8000016000F084F82068800104D524480168CE
:101E900051F0007101602068C00104D5204801683C
:101EA00051F0807101602068400204D51C4801682F
:101EB00051F48001016010BD000000000CED00E055
:101EC00000E100E000E400E018ED00E0D949003056
:101ED0008438024000380240303802404038024026
:101EE0000004024000000240203800400000A040F2
:101EF00000007040A00D00201C38004070600240BF
:101F0000402C030084600240043800400C60024012
:101F10000C380040786002407C60024074600240EF
:101F20000860024004600240006002407047000008
:101F300010B5040010480460FFF70BFF10BD80B51A
:101F4000FFF7A0FE0120FFF7D3FE00F07EF801BDF1
:101F500080B509480068804701BD10B504000748F6
:101F6000046000F08CF810BD10B504002000034997
:101F70000968884710BD0000BC0D0020C00D00207E
:101F8000026803685FEA33420A607047704770472F
:101F90006C480068C0F302207047010049B2002974
:101FA00009D4012210F01F018A40674903005BB287
:101FB0005B0941F823207047010049B200290DD484
:101FC000012210F01F018A40604903005BB25B09E7
:101FD00041F82320BFF34F8FBFF36F8F704710B4CA
:101FE000020052B2002A05D40A01594B040064B21F
:101FF0001A5508E00A01574B040064B214F00F04AC
:10200000234403F8042C10BC704770B4030013F091
:102010000704D4F10700052801D3042001E0D4F11E
:102020000700251D072D01D2002500E0E51E012631
:1020300016FA00F0401E0140A94016FA05F56D1E83
:102040002A401143080070BC704780B542480168BF
:1020500051F00101016040F2A11200213F48FFF759
:10206000D5FAFFF795FF00220621FFF7CEFF01000A
:102070001C20FFF7B4FF01BD39490860704780B5E7
:10208000002038490860002037490860002037499F
:10209000086000203649086044F21600354908609F
:1020A0004FF4006034490860402034490860012042
:1020B0005FF0804108601C20FFF76FFF01BD80B515
:1020C0001C20FFF779FF00202A49086000205FF0FC
:1020D0008041086001BD2DE9F04125480468284889
:1020E000056800210160680629D5002C27D01D4E07
:1020F0003068A04206D21C490A68A2183068121A39
:102100000A6006E018490A68521E3068121AA218BE
:102110000A60164F38681249096888420BD1DFF807
:102120004880D8F80000FFF71FFF0020C8F8000023
:102130000020386002E03868401C38603460BDE838
:10214000F08100000CED00E000E100E080E100E043
:1021500000E400E018ED00E04038024000000240DA
:10216000AC0D0020A80D0020980D0020B00D00201F
:102170002400004008000040500000400C000040D7
:102180001000004010B410F00703644C22684FF6B2
:10219000FF010A40624951EA03210A43226010BC50
:1021A00070475E480068C0F30220704710B4020018
:1021B00052B2002A05D40A015A4B040064B21A55DF
:1021C00008E00A01584B040064B214F00F042344E1
:1021D00003F8042C10BC704770B4030013F007041C
:1021E000D4F10700052801D3042001E0D4F1070051
:1021F000251D072D01D2002500E0E51E012616FA57
:1022000000F0401E0140A94016FA05F56D1E2A4057
:102210001143080070BC704710B50400601EB0F197
:10222000807F01D301200EE0601E404908600F212D
:102230005FF0FF30FFF7BAFF00203D49086007203C
:102240003C490860002010BD3B480168491C016002
:1022500070473C48016851F480310160016889038E
:10226000FCD539490A6852F080520A6037490A6839
:1022700052F440420A6036490A680A600A6852F419
:1022800080520A600A680A60324A334B1A60026858
:1022900052F08072026002689201FCD540F2037035
:1022A0002E4A10600868800880000860086850F0B6
:1022B00002000860086810F00C000828FAD1704786
:1022C0002748016851F08071016000201B490860B7
:1022D0002448016851F001010160704780B5032076
:1022E000FFF750FFFFF7B5FF00F048F8144800680B
:1022F0004FF47A71B0FBF1F0FFF78EFFFFF751FF5B
:1023000000220021FFF768FF01005FF0FF30FFF7B8
:102310004DFFFFF7D5FF01BD000000000CED00E010
:102320000000FA0500E400E018ED00E014E000E031
:1023300018E000E010E000E0B80D0020041000E01C
:102340000000002000380240403802400070004089
:10235000083802401930400404380240003C024072
:10236000FCED00E0001000E02D48016851F4700120
:1023700001605FF000602B4908607047F0B40021F5
:102380000022022300200224274E356815F00C0598
:102390002F00002F04D0042F06D0082F08D030E0E3
:1023A0002249234F39602FE02249214F39602BE029
:1023B000214F3968C1F380510800396811F03F019D
:1023C0000C00002809D01B49B1FBF4FC3968C1F3AB
:1023D000881101FB0CFC624608E01449B1FBF4FCD7
:1023E0003968C1F3881101FB0CFC62463968C1F3FE
:1023F0000141491C49000B00B2FBF3F10C4F39605D
:1024000002E00A490A4F39600C493668C6F30316E0
:10241000895D074E3768CF403760F0BC70470000D9
:1024200088ED00E008ED00E0083802400024F400E8
:102430000000002040787D01043802401826000882
:1024400009028200020100C032080B0002010000F4
:102450000209040000000101000009240100012B11
:102460000001010C24020101010002030000000D23
:1024700024060201020000010001000009240303F8
:102480000203000200090401000001020000090427
:1024900001010201020000072401010001000B24D8
:1024A00002010202100180BB0009050105C4000100
:1024B00000820725010000000009058211040001C7
:1024C0000500000001020008C10200088D03000899
:1024D000DD0300086F040008FB0500089B060008E8
:1024E000110700082302000891020008CD07000828
:1024F000BF070008150A000810B5074979441831CC
:10250000064C7C44163404E00A68081D11448847D0
:102510000146A142F8D110BD50000000700000003B
:1025200022035500410043002000490032005300BF
:102530002D004400410043002000640065006D0050
:102540006F0000004EF68851CEF20001086840F49A
:1025500070000860BFF34F8FBFF36F8F4FF00070B4
:10256000E1EE100A7047000067EDFFFFC40D0000A8
:10257000040000200000000033F1FFFF0400000011
:10258000D401000000000020000000003F1F0008F0
:10259000311F00089D1D0008491D00087920000812
:1025A0005B1F0008BF200008811F000800F00DF825
:1025B000002801D0FFF7A0FFAFF300800020AFF3A9
:1025C000008000F004F800F00AF80120704780B5A0
:1025D000FFF784FEFEF7FEFCFEF71CFD01BD00F0D8
:1025E00001B800000746384600F002F8FBE700009B
:1025F00080B5AFF30080024A11001820ABBEFBE7A4
:102600002600020012010002EF020140830440573D
:1026100000010102FE0100000000000000000000B7
:1026200001020304060708090148804701480047E2
:10263000692300084526000850260008AA1400084F
:1026400020250008AFF30080FFF77CFFFFF7AEFF07
:10265000040309040000005000080050000E005060
:10266000FFF7FEBFFFF7FEBFFFF7FEBFFFF7FEBF9E
:10267000FFF7FEBFFFF7FEBFFFF7FEBFFFF7FEBF8E
:10268000FFF7FEBFFFF7FEBFFFF7FEBFFFF7FEBF7E
:10269000FFF7FEBFFFF7FEBFFFF7FEBFFFF7FEBF6E
:1026A000FFF7FEBFFFF7FEBFFFF7FEBFFFF7FEBF5E
:1026B000FFF7FEBFFFF7FEBFFFF7FEBFFFF7FEBF4E
:1026C000FFF7FEBFFFF7FEBFFFF7FEBFFFF7FEBF3E
:1026D000FFF7FEBFFFF7FEBFFFF7FEBFFFF7FEBF2E
:1026E000FFF7FEBFFFF7FEBFFFF7FEBFFFF7FEBF1E
:1026F000FFF7FEBFFFF7FEBFFFF7FEBFFFF7FEBF0E
:10270000FFF7FEBFFFF7FEBFFFF7FEBFFFF7FEBFFD
:10271000FFF7FEBFFFF7FEBFFFF7FEBFFFF7FEBFED
:10272000FFF7FEBFFFF7FEBFFFF7FEBFFFF7FEBFDD
:10273000FFF7FEBFFFF7FEBFFFF7FEBFFFF7FEBFCD
:10274000FFF7FEBFFFF7FEBFFFF7FEBFFFF7FEBFBD
:08275000FFF7FEBF0024F400B6
:040000050800264584
:00000001FF
